:020000040000FA
:1000000060200010E9010000F1010000F301000090
:10001000F5010000F7010000F901000000000000F8
:100020000000000000000000000000006903000064
:10003000FD01000000000000F10300004104000089
:10004000030200000302000003020000030200009C
:10005000030200000302000003020000030200008C
:10006000030200000302000003020000030200007C
:10007000030200000302000003020000030200006C
:10008000030200000302000003020000030200005C
:10009000030200000302000003020000030200004C
:1000A000030200000302000003020000030200003C
:1000B000030200000302000003020000030200002C
:1000C00003020000030200000302000000F002F837
:1000D00000F060F80AA090E8000C82448344AAF182
:1000E0000107DA4501D100F055F8AFF2090EBAE880
:1000F0000F0013F0010F18BFFB1A43F0010318475C
:10010000DC170000FC17000010F8013B0A4413F054
:10011000030408BF10F8014B1D1108BF10F8015B64
:10012000641E05D010F8016B641E01F8016BF9D153
:10013000002D15D010F8014B03F00C030C2BA1EB94
:1001400004040ABF10F8013BA4EB8314A4EB0324BE
:1001500005F1010314F8016B5B1E01F8016BF9D581
:10016000914238BF10F8013BD1D3704700230024DF
:1001700000250026103A28BF78C1FBD8520728BFB7
:1001800030C148BF0B6070471FB500F0AAF81FBD13
:1001900010B510BD00F0B5FE1146FFF7F5FF00F0F9
:1001A0008BFB00F0D3FE03B4FFF7F2FF03BC00F0BB
:1001B000D7FE00000B49D1F800C04A685CF8043B48
:1001C0001068184442F8040B8C4528BFA1F1DC0CE0
:1001D0008A4228BFA1F1DC02C1F800C04A6020F0C9
:1001E00000407047541E00100948804709480047E6
:1001F000FEE7FEE7FEE7FEE7FEE7FEE7FEE7FEE7D7
:10020000FEE7FEE704480549034A054B7047000036
:100210005B050000CD000000601E00106020001093
:10022000601E0010FEE77047FEE710B501F002FA0D
:1002300030B1194900EB400001EB4010603810BDAF
:10024000164810BD164A10B511680346082900D398
:10025000FEE7144800EB0110491C1860116000F023
:10026000EDFF012010BD10B5044601F0E3F90028B0
:1002700005D04FF6FF71DFF830C0206800DF10BDF9
:1002800010B5044601F0D6F9002803D0DFF81CC0F1
:10029000206800DF10BD0000E0150010181D0010E0
:1002A0000800001080180010311300004D120000EB
:1002B00000487047181D00100B4910B5A1F17C02D1
:1002C0000A4CC2E93712372106E000EB104342F82E
:1002D0002130074B00FB03400B1EA1F10101F4DCB0
:1002E00010BD0120E8E70000F41D0010E119D666FA
:1002F000CD0D01007047704770477047FFFFFFFF4B
:1003000080F309887047EFF309807047684680F3EF
:10031000098804480078C00714BF0220032080F336
:1003200014887047CC180000DFF818C0EFF305837D
:100330001B0618BF6047EFF31483DB0708BF604755
:1003400000DF7047830F0000DFF818C0EFF305836C
:100350001B0618BF6047EFF31483DB0708BF604735
:1003600000DF704721110000EFF30980816911F867
:10037000021C39BB90E80F10E047EFF3098C194BD2
:1003800093E80600914218D059B10CB44FF0010324
:1003900081F826302CE9F00FC1F82CC001F0E4F808
:1003A0000CBC1A60D2F82CC0BCE8F00F92F82630D2
:1003B0008CF309881BB192F82500CCF800006FF08F
:1003C000020E704710B5084A1268914209D8074CCE
:1003D00054F8214090E80F10A047EFF3098C8CE807
:1003E0000F0010BD3C1500106C0F00006C0F0000DA
:1003F00000F0D2FF114B93E8060091421BD00CB4E1
:100400004FF0000381F82630EFF3098C2CE9F00F50
:10041000C1F82CC001F0A8F80CBC1A60D2F82CC0AE
:10042000BCE8F00F8CF3098892F826301BB192F8E3
:100430002530CCF800306FF0020E70473C150010EC
:1004400001F0B8F8D6E7000000F09AFD01F0B2F82C
:10045000D0E7000070B56C4DD5F888006B4C6FEAA2
:100460001060800713D0D5F80C0110F0030005D000
:1004700001285FD0022866D0032807D1D5F80401EF
:100480006349C0B2401CB1FBF0F0206070BDD5F8EC
:100490000C014FF0000110F0030005D001281AD024
:1004A00002282FD00328F1D155F8880FC0F3074256
:1004B0002868521CC0F30E005649401CA0FB0101E5
:1004C000002300F0A7FCEA6F0023D2B2521C00F018
:1004D000A1FC206070BD55F8880FC0F30742286862
:1004E000521CC0F30E004C49401CA0FB010100232C
:1004F00000F090FCEA6F0023D2B2521C00F08AFC9C
:10050000206070BD55F8880FC0F307422868521C60
:10051000C0F30E00401C090441EA1041000400230E
:1005200000F078FCEA6F0023D2B2521C00F072FC9B
:10053000206070BDD5F804013849C0B2401CB1FB41
:10054000F0F0206070BDD5F804014FF40041C0B256
:10055000401CB1FBF0F0206070BD70B52A4820212E
:10056000C0F8A011D0F8A011890603D5D0F8A011C9
:100570004906FBD503258030C0F884500024C0F81C
:100580002841C0F82C410126C0F88C600B21416045
:10059000AA23C3605522C2600660C360C26080386F
:1005A000D0F888104901FBD540F8805FC360C26075
:1005B0008038D0F88810C1F301610329F9D12321D3
:1005C000A0304160C360C2600660C360C260A038F2
:1005D000D0F8A8104905FBD540F8A05FC360C26001
:1005E000A038D0F8A810C1F301210329F9D10C4992
:1005F000C0F8C410C0F8C841016821F4704141F44A
:100600008041016070BD000000C00F40000000107C
:1006100000093D0000127A0000366E01001BB70091
:10062000DE87280410B5AA4C4FF496702061FFF7BE
:10063000C1FDC82190FBF1F201FB1201183161618B
:1006400062782069BDE8104000F069BB2DE9F047F1
:100650000024DFF880829E4EA8F5C875A146A5F15A
:10066000C80757F82400012840D1706958F82410B1
:10067000A0F10C02914223DB0C30814220DC55F8C2
:100680002400326990421BDB47F82490D6E904012C
:10069000202200F044FB58F8241055F824002022B2
:1006A00000F03DFBFFF7BEFFB06900F0FAFF8A4A99
:1006B0008A4B01F00DF800F0C5FFB061BDE8F0878E
:1006C00055F82400202200F02AFB55F82400801D54
:1006D00045F8240058F82410B27800F020FB55F8B3
:1006E0002400B0F5A07F01DB47F82490641C142C93
:1006F000B7DBE3E776497A4B1822886A43F8202073
:10070000744BCA6843F82020A3F51673012243F8FE
:100710002020401C8862142801D10020886295E7BF
:10072000002000F0BDFA002000F0B7FA4FF6FF708D
:1007300000F0B0FA6648406A03280CD069A118207E
:1007400000F0F6FA6CA1482000F0F2FA6FA17820D0
:1007500000F0EEFAFEE773A1182000F0E9FA76A1A6
:10076000482000F0E5FAF1E710B5594C2022D4E911
:10077000040100F0D4FAA1692069401A206162786E
:10078000616900F0CCFA206901280DDC616A491C1E
:100790006162032906D02022616900F0C0FABDE839
:1007A00010403FE7FFF7BCFF10BD10B54848C268D6
:1007B0004169914206D1016980681430814201DCAF
:1007C000FFF7AEFF10BD70B5414DAE68EC68214635
:1007D000032804D0042806D0012809D00AE049B132
:1007E000081FE86006E0D82904D0091DE96001E08F
:1007F000FFF780FF20222146304600F090FA2A7849
:10080000D5E90201BDE8704000F089BA10B5304862
:10081000002181607822C2604FF4967303614261C7
:100820008162052282614A1E426001624162C161A9
:100830003E2101704F2141702D218170100C00F07C
:100840002CFABDE81040002000F024BA00203F49F7
:10085000496B792202EA11511D4A431E5360CB06AF
:1008600001D4032353600B0701D4022353608B068A
:1008700001D401235360490601D404215160344955
:1008800000E0401C8842FCDB704770B5FFF7BEFFFC
:100890000F4C0120E061851E6560FFF7D7FF60689F
:1008A000FFF791FFFFF7D2FEFFF75EFFFFF77DFF37
:1008B000E0690128F0D070BD10B500F066F84FF681
:1008C000FF7000F0EDF9FFF7E0FF002010BD000021
:1008D0000C000010581B00109A9999999999F13FB2
:1008E000C8190010202020202047414D45204F5698
:1008F00045522020000000002020206669676874AF
:100900006572204372617368656400002020507531
:10091000736820524553455420427574746F6E209D
:1009200000000000202020202047414D45204F5648
:1009300045522020202020002020596F75204D692D
:1009400073736564204D6574656F200000C00920D5
:1009500060AE0A008004401E411CFCD1704770B597
:100960000546F74C606920F040006061601540EA80
:10097000152000F019FAE8B240F4807000F014FA83
:10098000606940F04000606170BD10B5ED48416A9B
:1009900021F040714162EA4C1834A16E41F080515F
:1009A000A166416A21F040614162A16E41F00051AF
:1009B000A166E16F41F00051E167E3490A6842F442
:1009C00080620A60D1F8E42042F40012C1F8E42009
:1009D00054F8181C41F0400144F8181C40212160D3
:1009E000016821F47C210160016841F42821016043
:1009F000D6480821016006210161022141600520DD
:100A0000FFF7A8FFCF2000F0D9F9002000F0E3F9AC
:100A1000832000F0E0F9302000F0DDF9ED2000F057
:100A2000CDF9642000F0D7F9032000F0D4F91220AA
:100A300000F0D1F9812000F0CEF9E82000F0BEF9F5
:100A4000852000F0C8F9012000F0C5F9792000F0F8
:100A5000C2F9CB2000F0B2F9392000F0BCF92C200B
:100A600000F0B9F9002000F0B6F9342000F0B3F935
:100A7000022000F0B0F9F72000F0A0F9202000F0EB
:100A8000AAF9EA2000F09AF9002000F0A4F9002069
:100A900000F0A1F9C02000F091F91D2000F09BF9B1
:100AA000C12000F08BF9112000F095F9C52000F06D
:100AB00085F9332000F08FF9342000F08CF9C7203D
:100AC00000F07CF9BE2000F086F9F62000F076F9FF
:100AD000012000F080F9102000F07DF9002000F0E6
:100AE0007AF93A2000F06AF9552000F074F93620BE
:100AF00000F064F9B02000F06EF9B12000F05EF96A
:100B0000002000F068F91B2000F065F9B62000F025
:100B100055F90A2000F05FF9A22000F05CF9F220FC
:100B200000F04CF9002000F056F9262000F046F9BC
:100B3000012000F050F9E02000F040F90F2000F013
:100B40004AF9232000F047F91F2000F044F909205A
:100B500000F041F90F2000F03EF9082000F03BF9C9
:100B60004B2000F038F9F22000F035F9382000F081
:100B700032F9092000F02FF9132000F02CF903209E
:100B800000F029F9122000F026F9072000F023F9DF
:100B9000042000F020F9E12000F010F9002000F01E
:100BA0001AF91D2000F017F9202000F014F9022096
:100BB00000F011F9112000F00EF9072000F00BF9F8
:100BC000342000F008F9812000F005F9462000F0FB
:100BD00002F9062000F0FFF80E2000F0FCF80C20CF
:100BE00000F0F9F8322000F0F6F8382000F0F3F8C1
:100BF0000F2000F0F0F8112000F0E0F80C20FFF7D3
:100C0000A9FE292000F0DAF8E06F40F08050E0679C
:100C100010BD70B504460D462A2000F0CFF8C4F38D
:100C2000072000F0D8F8E0B200F0D5F82C44641E9C
:100C3000C4F3072000F0CFF8E0B2BDE8704000F048
:100C4000CAB870B504460D462B2000F0B7F8C4F3BF
:100C5000072000F0C0F8E0B200F0BDF82C44641E9C
:100C6000C4F3072000F0B7F8E0B2BDE8704000F030
:100C7000B2B810B50C460121FFF7CBFF0121204689
:100C8000FFF7DFFF2C2000F099F831480088BDE81D
:100C9000104064E62E49088070472D49488070470F
:100CA00070B506464FF4A0710020FFF7B2FFF021A7
:100CB0000020FFF7C6FF2C2000F080F800244FF43E
:100CC00096353046FFF74BFE641CAC42F9D370BD3D
:100CD0002DE9F0410C46904600251021FFF799FFC1
:100CE00018212046FFF7ADFF2C2000F067F8184FC1
:100CF0000126002438F8150006FA04F1084203D151
:100D00007888FFF72CFE02E03888FFF728FE641C85
:100D1000102CEFDB6D1C182DEBD3BDE8F081203AD1
:100D2000D2B20B4B02EB42021B1D03EB0212CFE7C8
:100D30002DE9F04107460D460024002611E0000091
:100D400000C0092000C00240C4C00F4000000340A2
:100D50003800001039463046FFF7E1FF10366D1CB1
:100D6000641C2A78002AD8D0142CF3D3D5E721A10B
:100D7000DEE72DE9F0410F46069C11461D4601FBBA
:100D800005F6FFF746FF29463846FFF75AFF2C20A5
:100D900000F014F8002504E034F8020BFFF7DFFD43
:100DA0006D1CB542F8D3B8E7C0F30801174881605D
:100DB000C168C906FCD48068C0B2704710B5144C35
:100DC000616921F040016161FFF7EEFF606940F069
:100DD0004000606110BD10B50D4C616921F040010B
:100DE000616140F48070FFF7DFFF606940F0400010
:100DF000606110BD202020202020202020202020E5
:100E0000202020202020202000000000000003409F
:100E100000C0092053EA020C00F069802DE9F04B74
:100E20004FF00006002B1FBFB3FA83F503FA05F459
:100E300024FA05F65E4012BF1643B2FA82F502FAB2
:100E400005F4C5F120051EBF22FA05FC44EA0C0496
:100E5000203556EA044C4FEA144418BF641C4FF086
:100E600000084FF00009904271EB030C39D30029C0
:100E700019BFB1FA81F701FA07F6B0FA80F700FA64
:100E800007F6C7F120071EBF20FA07FC46EA0C064A
:100E90002037B6FBF4FCA7EB0507103F07F01F0B4C
:100EA000CBF120060CFA0BFB2CFA06F644BFB34636
:100EB0000026202FA4BF5E464FF0000B5BEA060C15
:100EC00008BF4FF0010B19EB0B09ABFB027C48EBA1
:100ED0000608C01B06FB02CC0BFB03CC71EB0C011C
:100EE000C1E70B46024641464846BDE8F08B13B5C4
:100EF0004FF000004FF00001AFF30080BDE81C4050
:100F000070477546FFF7D4F9AE460500694653466B
:100F100020F00700854618B020B5FFF773F9BDE84B
:100F200020404FF000064FF000074FF000084FF050
:100F3000000B21F00701AC46ACE8C009ACE8C009E1
:100F4000ACE8C009ACE8C0098D46704710B504464E
:100F5000AFF300802046BDE81040FFF724B9000041
:100F600001491820ABBEFEE7260002000000000089
:100F70004FF06041CA6F002AFCD081F87C007047B6
:100F8000704750E8001F31B10B6840E80032002A7A
:100F9000F7D108467047BFF32F8FFAE770B50D46BB
:100FA000002812D04FF6FF71084C884204D2226804
:100FB0000146104600F02EFA20684570044800F003
:100FC000BFF8BDE8704000F0E1BA70BD3C150010FC
:100FD000E81C00100F4810B50D4942680E480B6818
:100FE0000068934204D00A60CB88421E1A448A806B
:100FF0008A8880B282420AD100200860054800F049
:101000009FF80146BDE81040024800F027BA10BD25
:1010100044150010E81C00105015001070B51A4D52
:10102000E86800282ED0A88A401EA882002623E067
:10103000A06838B161684160606810B1A1688160E2
:101040006660A66010482146183800F007FAA08AAA
:10105000A8826078042804D10C49E08A09880844F1
:10106000A0820120607084F82500E068E860E068F4
:1010700008B10561E6602661A88A002802D1EC6803
:10108000002CD5D170BD0000001D001050150010BF
:1010900070B504000FD00D4DA17801262868827824
:1010A00091420CD900F0F6F9286846702046BDE858
:1010B000704000F06BBA064800F042F8F7E766703F
:1010C0002146BDE87040024800F0C8B93C15001048
:1010D000E81C001010B50446008B0843208362789A
:1010E000618B062A16D0052A17D1084215D001EACD
:1010F0000002628388432083204600F0EFF901203C
:101100006070022084F825002146BDE810400348A5
:1011100000F0A4B931EA0002ECD010BDE81C0010C8
:10112000814202D342688A4201D80120704750E8C8
:10113000002F0A6040E80012002AF8D10020704712
:101140000146406842684A600B780022022B05D0B5
:10115000012B03D0032B01D04260704743680BB1D1
:1011600099604260826070472DE9F0410446406812
:101170000F464FF0000804F10C0620B161780229F7
:101180001DD0A089E8B3A089E18988424ED2208988
:1011900004EB8000C0F81070D6E85F0F401C81B2ED
:1011A000C6E8501F0028F7D12089401C80B220815A
:1011B000E189884201D1A4F80880BDE8F081406847
:1011C00000B1012060702046FFF7BAFF80F825804B
:1011D0002289054604EB8202C0694146C2F810002C
:1011E000D6E85F0F401C82B2C6E8502F0028F7D126
:1011F0002089401C80B22081E28990420BD121815C
:1012000009E0FFE72046FFF79BFF0546C069042180
:10121000076085F8251001206870284600F05EF907
:101220002946BDE8F041044800F018B9BDE8F04196
:101230000320FEF7F9BF0000E81C00100321017035
:101240000021418041608160C16070472DE9F04715
:101250000446408820B1344DA1682A68914202D0EA
:10126000FF20BDE8F087401E0004000C608059D1CB
:101270002968086AA04209D1E068086208E0C268EB
:10128000A24202D1E268C26002E010460028F6D114
:1012900091F824000A6A06E053681BB19B788342E8
:1012A00000D91846D268002AF6D18870DFF87C8011
:1012B00061689146012741B32046FFF741FF06468A
:1012C000052086F82500304600F008F96780A66002
:1012D000306AE06034622968D8F804008A7880783F
:1012E000824201D330460AE0104800F0B7F8314698
:1012F0000E4800F0B3F828684770777010E0FFF7E9
:10130000C7FE296881F825900CE0D8F804108A7887
:101310002968824206D9054800F0A0F8286847707D
:101320000020ECE700209CE73C150010E81C0010B2
:1013300070B5184D0E4604464188286839B1A16839
:10134000814209D16088401C6080002070BDA0608F
:10135000016AE1600462F5E776B18A7880788242BA
:1013600003D28870A06800F09FF8606830B1204612
:10137000296800F073F808E0012070BD28686060FB
:101380002968002048602868846009213046FFF7FA
:1013900005FEF1E73C15001070B51B4801210268FD
:1013A0005170006800F076F8184D6C7818E000BFB6
:1013B00005EBC40148680278EAB1012A20D000F0A8
:1013C000B9F8E878641C844200D100240F48801CDE
:1013D000D0E84F1F491EC9B2C0E8421F002AF7D10A
:1013E000A8780028E4D16C700948FFF7A9FEBDE891
:1013F000704000F0CBB8098989B2FFF76BFEE0E7D7
:101400008968FFF7B1FEDCE73C1500105C150010A1
:10141000E81C0010104A10B5D368ABB113469B8A84
:1014200003E08CB12246A48A2344D4688B42F8D3CB
:10143000C460D0600261C46804B12061591A81821D
:10144000908A401A908210BD0024C460D060C91AEE
:1014500002619182848210BD001D001030B50278B7
:101460000023022A03D0012A01D0032A00D101233C
:101470008C7800E01046426812B19578A542F9D206
:101480004A6041601BB102B19160886030BD0020AC
:10149000FBE7000003494A6842600022826048601E
:1014A00070470000E81C001010B5836804462BB993
:1014B000607801280ED1084B03E09B68187800285B
:1014C000FBD0204600F01EF82146BDE8104018462B
:1014D000FFF7C4BF10BD0000E81C001010B5016983
:1014E00000290ED0C268CA60C36800223BB18B8A53
:1014F000848A23448B82C3681961C26000E08A82B7
:10150000026110BD816839B142684A6041680029B2
:1015100001D0806888607047054906E04A688242C9
:1015200002D140684860704711460029F6D17047E3
:10153000E81C001010B5416879B1FFF701FE0446C0
:10154000FFF7CCFF01206070032084F825002146BE
:10155000BDE810400348FFF781BF4188491C418026
:1015600010BD0000E81C001006480068D0E90B1010
:10157000814203D300680449884202D00120FEF76B
:1015800053BE70473C150010A52E5AE207490222AF
:1015900048604270064A1278002A05D006C98A427D
:1015A00002D0C078FFF7E4BC704700003C15001083
:1015B0004C1500100C4810B50268012151700068EC
:1015C000FFF768FFFFF706FD08480168491C016046
:1015D000FFF724FD00F00EF80548FFF7B1FDBDE868
:1015E0001040FFF7D3BF00003C150010501500104D
:1015F000E81C001070B50D4C2068002815D0A0889C
:101600000B4E401EA0800AE0E888FEF70CFEA8887A
:10161000A0802868206029463068FFF781FDA088F7
:10162000002802D12568002DEED170BD54150010A0
:101630000400001002480068002800D0C0787047FD
:101640003C1500104FEA41034FEA5353A3F5806362
:10165000D3F11E03C8BFD3F1210C0CDD4FF00042C3
:1016600042EAC12242EA505232FA03FC8CEAE17C9F
:10167000ACEBE1707047102BC4BF0020704703F53E
:10168000787CBCF1FF3F04D06FF0004282EA210079
:10169000704770B500F0C6F849922480002070476A
:1016A000F2E710F0004248BF4042B0FA80F310FA6F
:1016B00003F10AD0C3F11D0303F580634FEA4150E3
:1016C00002EB035202EBD12170474FF0000070474C
:1016D000DFF848C170B51CEA111E1EBF1CEA1315C5
:1016E0009EEA0C0F95EA0C0F00F06F8081EA03046C
:1016F00023EA4C134EEAD47E21EA4C1141F48011C6
:1017000043F48013AE44A1FB024CA0FB0365AEF191
:101710007F7E361955EB0C05A1FB034C4CF1000301
:10172000A0FB021C16EB0C06654153F100030942B5
:1017300018BF46F0010613F4007F0BD14FEA0331C6
:101740004FEA0530340341EA155140EA16506FF074
:1017500003020AE04FEAC3214FEAC520F40241EA3E
:10176000555140EA56506FF0020202EB2E4201EB57
:10177000025585EACE710AD05FEA440C18BF24F006
:10178000004450F1000041F1000120EAD47040F221
:10179000FE7C624500D270BDA84214BF4FF0804469
:1017A0004FF04044002E08BF0024BEF1806FA8BF58
:1017B000A1F1C041BDE8704080F282804FF000008E
:1017C00001F1C04101F0004170479EEA0C0F0CEAA4
:1017D000131518BF95EA0C0F06D04FF0000081EAF0
:1017E000030E0EF0004170BD00F01CF88900013EB0
:1017F00000F007B800F009B84FEA430C5FEA5C5C00
:1018000008D081EA030100F05BB84FEA410C5FEABF
:101810005C5CF6D14FF00000014970470000FF0703
:101820000000F87F0EF1020E2EF0030E5EF8046B3E
:10183000364205D4012A43EB030515F5001F12D8E3
:10184000012841EB010C1CF5001F0CD80ED14FEA0A
:10185000D17C15F5001F0CEB4C0C0CF1020C08BFF1
:101860004CEBD37C04E04FF0080C01E04FEAD37C52
:101870000CEB4C0526FA05F606F00706B6F1040C4B
:1018800006D20EEB860CBDE870404CF0010C6047B0
:10189000DFE80CF0090B02024FF000414FF00000AE
:1018A000A1F5002170BD19461046012851EB010435
:1018B00018BFD4F5001484BF002001F0004170BDB2
:1018C0000808A0F500114FEA310170470000000040
:1018D00010270000000000004B000400FC1800006E
:1018E000000000105C1500000801000090200000BE
:1018F0005C150010040B00006C01000000063300B2
:10190000A24A0400010330FFFF3403168001026184
:101910001EE16692CC02012A6A23600C02200F307D
:10192000063006FE1FFE1F3006380718030A200780
:10193000180318038C01023172201700E003F80F1E
:101940009C0E8C1C8C188C009800F801E007800E0F
:10195000800E100B189C18B80CF00FE0038026A125
:101960005A10090E181B0C110C110602101103114C
:10197000039B018E01C038C06C6044604430026437
:10198000071844186C0C38241005E001F0037A1095
:10199000140618063003F001F000F8009C310E33F5
:1019A000061E061C02E0063FFC73F021B8920C02F2
:1019B0000121E7100B0200038001C000C00060029B
:1019C000D230022114211C155E12032A1516322072
:1019D000123570120302D20602111425A2214ED62E
:1019E000208821481008D806F807E00130D2052ADF
:1019F000EAC405FC3FFC3FE8092C301200020A1B38
:101A0000808A080534E007E007C4253AF57F750CA5
:101A1000155C351045624564D17AE00A03F0073859
:101A20000E180C0C1802D409180C380EF007E0033D
:101A3000B0214C0C071901F0019801880803A1603E
:101A400043F80F5E220002219C35F025ECD00718E8
:101A500000FC1FFC1F90100701F807180E0C012155
:101A6000C81805C003C00751113C41920210F890FC
:101A70004C0B0C000E000F000F800DC03003116BDB
:101A8000270C0CB209148513F80F9031893009EC3A
:101A900003FC071C0E001C98115E0005101C0C189E
:101AA0000E602009C007F00F381C1818325409CCFA
:101AB00003EC0F3C0E1C1C2006121C2031D2458268
:101AC000357C16C07A3AE0C85A70DE05148021537E
:101AD00084073806F007F0078CE005380CF80F6033
:101AE0004130521C2430091C1C381EF81BE019D14F
:101AF000130C1CC00B1BF0018A012114011F3009BB
:101B00001ACE1C0510001C80720416F8DC1AF85C52
:101B100017800F600E18108205C3F81F080D1E14E1
:101B200005180708003800F00114121F61161F9CE9
:101B300013013814091770796E6D2603FD2E033DCD
:101B40007C03400C18180420C229224A11440902BF
:101B5000EC0C221113E20C02400420181898031513
:101B6000D4200403C00602396E2218022C07F83F65
:101B7000F83F1C70AF052119D9106C0503FC0F0C40
:101B80005E0310040CFC070E1A18A541021E180073
:101B900003FA0770BC0A1F38381C300C700660DD71
:101BA00004E008600C701C30F01F903C08FE03FE3F
:101BB0000F060E06A105B1022DB305E8050EFE0FB6
:101BC000FEA01DCC048DA20529AEADB0053D3803A5
:101BD000C5A211DC4DBB032D27038005F81FF81F9C
:101BE0000E4DD303DDCA043C0C0FF83F3C780E6069
:101BF00006E007C0810411A11DC5031533DC090EE1
:101C0000C03CF0F83FE00FBF03A23002319EB1129A
:101C10000F260C3080070D15A00502140602253191
:101C2000DC063807F003E0B004353A10140C060661
:101C300006038601C60066007600DE008E010603FC
:101C400012360C64DD4105021B18022530CD21033C
:101C500020050EE01EF0024336D8022366CC025265
:101C6000C601E40586C386C32010041C303C021262
:101C70006C0212CC0210058C310C330212360212A7
:101C80003C02E638201C05E007F81F9904193EA322
:101C900003C002F80806600E701C38F8401BFC0FE9
:101CA00002CA38920E190CC407916082E05E1409D2
:101CB00007E006630E3F1C3CE0CEF7910619825800
:101CC000041F06389C1E38C00876074C49B20E1017
:101CD0006030065DDE041D9B051BF80330331E00DB
:101CE000401C050E301C1C1005ED000308042A7F63
:101CF000FE7F10E95EA97E0710181820430360BC20
:101D00006D14072D16072D940914057007600363E1
:101D10001DE005E13023C3610283663302236C1B9F
:101D200002CC092C1A3C1E380E380E31051C090F46
:101D3000E00C70183030183F043C040EC0075E04FD
:101D4000140503E00670F71D8107D006300E60070A
:101D5000E0602D79044C08301C383818300C6503CD
:101D60000D1C80075C05FC7FFC7F6D07DD7C072D6B
:101D70002708253EED10082FE003AE06011E0221C4
:101D8000282DA60A6DA6094DA8091D64096D0E0B24
:101D90007E03A009F1600221000261601D82071D1F
:101DA0004407256C3F6003D7042919013901CFFF8F
:101DB000FFF60B0D2DAE0A9D4A081805F003F80733
:101DC000AA2C070C000FF00FF8B1081F0C1C5C08C0
:101DD0000F16F01820041ED8A80B1E3837088101F2
:101DE0002DE0070F17D803DA091D9A096F300E3955
:101DF000092DA3081E309009EEC00009711F2805A7
:101E0000C01BF01F368160000719301CF01FC01B7B
:101E1000601E0F83066E18D4051952EC051CF00FD6
:101E2000C0F00644040FC00FDA2D9C0855E4B1023F
:101E30000D17D40A1E0DFA093DCA0961011D60097A
:101E400024050FE00D002A6E06AA0895204F07F81A
:101E50006A09D1010D16F00A0215C002012E3041A7
:101E6000DEEC04F80078BE0C1C050C0C060C6A0DA8
:101E7000100DCC006C00FC009C018C030C03120EB6
:101E8000100C560C011C020D169009E0097C3CFF59
:101E90007EC7E383C1020D16EA0B062398200510C6
:101EA000E099101D0E0E0A17C0700916A00D16EA53
:101EB000070917700D151B081EB06E07FE70E20DA6
:101EC0000E1830140D1E037A0E1D1A0B1DF2093D5B
:101ED000060C0D15900C1D020F0919A00F17078095
:101EE000EA0D09106A1238C01D4C0B0D15DB0A4DA6
:101EF000FE053E18920F1DB7060E140300068DF85E
:101F00000F3008C141C141C3616301323601321C47
:101F1000010D16F00F3E1CF70952605A1D5E061D9A
:101F200075061E38E10B0117C01D36061D38062E3A
:101F30001828102FE00C940A2D3E064DF00D1DA21E
:101F40000D1D700C0D159A0C0D1B800D8D300B8D19
:101F5000320E2DE205BA40D63D900F0D259009CDE9
:101F600022119E6024069DC60FB3030048FEC0A840
:101F70000E5D740500075110F81F080F0001600D79
:101F8000C003300C081004200420024002210E0C73
:101F900005120810300C34032D3E052FF81F1A10BF
:101FA0002D82084102210E0F18F81F64031EE04C19
:101FB0000EA9700F1CF00FF60F21302D9E05610247
:101FC000011E30ADBC103AC04021660D10840A01DC
:101FD0001430A16E0D10A80D1D24063D42041DE312
:101FE0000C0E20030411A1B20122307D6C121D5889
:101FF0001010048C018602128C0A00051EF001E00C
:1020000001301006F801FC01FE0212FC0A011E302C
:10201000100B8007800F8019803180610212310A15
:1020200000041F0F80073010061F803F807F0212C0
:102030003F0A0111301805C001200233B0050130FC
:102040000608012116E1024DCE082D62091D42113C
:10205000A00407D80D027DF603910201126023044B
:1020600010593240164310041211026C042004402F
:102070002E09C1604C07CC19C631C26142091F70DC
:102080000680084D3A101D69040D22460300000029
:04000005000000CD2A
:00000001FF
