:020000040000FA
:10000000682E0010E9010000F1010000F30100007A
:10001000F5010000F7010000F901000000000000F8
:100020000000000000000000000000006903000064
:10003000FD01000000000000F10300004104000089
:10004000030200000302000003020000030200009C
:10005000030200000302000003020000030200008C
:10006000030200000302000003020000030200007C
:10007000030200000302000003020000030200006C
:10008000030200000302000003020000030200005C
:10009000030200000302000003020000030200004C
:1000A000030200000302000003020000030200003C
:1000B000030200000302000003020000030200002C
:1000C00003020000030200000302000000F002F837
:1000D00000F060F80AA090E8000C82448344AAF182
:1000E0000107DA4501D100F055F8AFF2090EBAE880
:1000F0000F0013F0010F18BFFB1A43F0010318475C
:10010000041B0000241B000010F8013B0A4413F0FC
:10011000030408BF10F8014B1D1108BF10F8015B64
:10012000641E05D010F8016B641E01F8016BF9D153
:10013000002D15D010F8014B03F00C030C2BA1EB94
:1001400004040ABF10F8013BA4EB8314A4EB0324BE
:1001500005F1010314F8016B5B1E01F8016BF9D581
:10016000914238BF10F8013BD1D3704700230024DF
:1001700000250026103A28BF78C1FBD8520728BFB7
:1001800030C148BF0B6070471FB500F0AAF81FBD13
:1001900010B510BD00F0CBFF1146FFF7F5FF00F0E2
:1001A00075FC00F0E9FF03B4FFF7F2FF03BC00F0B9
:1001B000EDFF00000B49D1F800C04A685CF8043B31
:1001C0001068184442F8040B8C4528BFA1F1DC0CE0
:1001D0008A4228BFA1F1DC02C1F800C04A6020F0C9
:1001E000004070475C2C00100948804709480047D0
:1001F000FEE7FEE7FEE7FEE7FEE7FEE7FEE7FEE7D7
:10020000FEE7FEE704480549034A054B7047000036
:100210005B050000CD000000682C0010682E001067
:10022000682C0010FEE77047FEE710B501F0C6FC31
:1002300030B1194900EB400001EB4010603810BDAF
:10024000164810BD164A10B511680346082900D398
:10025000FEE7144800EB0110491C1860116001F022
:10026000B3F9012010BD10B5044601F0A7FC002829
:1002700005D04FF6FF71DFF830C0206800DF10BDF9
:1002800010B5044601F09AFC002803D0DFF81CC02A
:10029000206800DF10BD0000C0270010202B0010D8
:1002A00008000010602A0010BD160000D9150000DB
:1002B00000487047202B00100B4910B5A1F17C02BB
:1002C0000A4CC2E93712372106E000EB104342F82E
:1002D0002130074B00FB03400B1EA1F10101F4DCB0
:1002E00010BD0120E8E70000FC2B0010E119D666E4
:1002F000CD0D01007047704770477047FFFFFFFF4B
:1003000080F309887047EFF309807047684680F3EF
:10031000098804480078C00714BF0220032080F336
:1003200014887047D41B0000DFF818C0EFF3058372
:100330001B0618BF6047EFF31483DB0708BF604755
:1003400000DF7047CF110000DFF818C0EFF305831E
:100350001B0618BF6047EFF31483DB0708BF604735
:1003600000DF704711140000EFF30980816911F874
:10037000021C39BB90E80F10E047EFF3098C194BD2
:1003800093E80600914218D059B10CB44FF0010324
:1003900081F826302CE9F00FC1F82CC001F0AAFA40
:1003A0000CBC1A60D2F82CC0BCE8F00F92F82630D2
:1003B0008CF309881BB192F82500CCF800006FF08F
:1003C000020E704710B5084A1268914209D8074CCE
:1003D00054F8214090E80F10A047EFF3098C8CE807
:1003E0000F0010BD58150010981100009811000062
:1003F00001F098F9114B93E8060091421BD00CB420
:100400004FF0000381F82630EFF3098C2CE9F00F50
:10041000C1F82CC001F06EFA0CBC1A60D2F82CC0E6
:10042000BCE8F00F8CF3098892F826301BB192F8E3
:100430002530CCF800306FF0020E704758150010D0
:1004400001F07EFAD6E7000000F0C0FE01F078FA75
:10045000D0E7000070B56C4DD5F888006B4C6FEAA2
:100460001060800713D0D5F80C0110F0030005D000
:1004700001285FD0022866D0032807D1D5F80401EF
:100480006349C0B2401CB1FBF0F0206070BDD5F8EC
:100490000C014FF0000110F0030005D001281AD024
:1004A00002282FD00328F1D155F8880FC0F3074256
:1004B0002868521CC0F30E005649401CA0FB0101E5
:1004C000002300F0BDFDEA6F0023D2B2521C00F001
:1004D000B7FD206070BD55F8880FC0F3074228684B
:1004E000521CC0F30E004C49401CA0FB010100232C
:1004F00000F0A6FDEA6F0023D2B2521C00F0A0FD6E
:10050000206070BD55F8880FC0F307422868521C60
:10051000C0F30E00401C090441EA1041000400230E
:1005200000F08EFDEA6F0023D2B2521C00F088FD6D
:10053000206070BDD5F804013849C0B2401CB1FB41
:10054000F0F0206070BDD5F804014FF40041C0B256
:10055000401CB1FBF0F0206070BD70B52A4820212E
:10056000C0F8A011D0F8A011890603D5D0F8A011C9
:100570004906FBD503258030C0F884500024C0F81C
:100580002841C0F82C410126C0F88C600B21416045
:10059000AA23C3605522C2600660C360C26080386F
:1005A000D0F888104901FBD540F8805FC360C26075
:1005B0008038D0F88810C1F301610329F9D12321D3
:1005C000A0304160C360C2600660C360C260A038F2
:1005D000D0F8A8104905FBD540F8A05FC360C26001
:1005E000A038D0F8A810C1F301210329F9D10C4992
:1005F000C0F8C410C0F8C841016821F4704141F44A
:100600008041016070BD000000C00F40000000107C
:1006100000093D0000127A0000366E01001BB70091
:10062000DE87280410B5F64CE06B012811D1D4E91F
:100630001001202200F01FFC206C401C2064A278D6
:10064000616C00F018FC206CB0F5A07F01DB00208D
:10065000E06310BDEA4818210164416A4164012148
:10066000C163DFE710B5E64C4FF49670A062FFF768
:10067000A1FD0A2190FBF1F201FB120000EB40000A
:10068000C100E1626278A06ABDE8104000F0F3BBEF
:10069000002000F0B1FB002000F0ABFB4FF6FF7034
:1006A00000F0A4FBD648806B03280CD0D5A11820FD
:1006B00000F0EAFBD8A1482000F0E6FBDBA178209F
:1006C00000F0E2FBFEE7DFA1182000F0DDFBE2A175
:1006D000482000F0D9FBF1E710B5C94C2022D4E93D
:1006E0000A0100F0C8FBA06A401EA0626278E16ABD
:1006F00000F0C1FBA06A01280DDCA16B491CA163BD
:10070000032906D02022E16A00F0B5FBBDE81040C5
:10071000A8E7FFF7BDFF10BD10B5B948426AC16A2E
:10072000914206D1816A006A1430814201DCFFF7F0
:10073000AFFF10BD10B5B24CE16A606C814210D1C0
:10074000226CA06A90420CDC0022E263202200F0BE
:1007500092FBD4E91001202200F08DFBBDE810408F
:1007600080E710BD70B5A64D2E6A6C6A214603283D
:1007700004D0042807D001280AD00BE051B1A1F120
:100780001800686206E0D82904D01831696201E0D7
:10079000FFF760FF20222146304600F06CFB2A78EC
:1007A000D5E90801BDE8704000F065BB10B594487C
:1007B00000210162782242624FF496738362C26222
:1007C0004A1EC26141638163C16301633E210170BE
:1007D0004F2141702D218170100C00F00AFBBDE803
:1007E0001040002000F002BBA048406B792101EAD4
:1007F00010508349C20601D40322CA61020701D402
:100800000222CA61820601D40122CA61400601D4D3
:100810000420C861704710B5FFF7C8FF784C01206D
:100820002063E069FFF79EFFFFF7DEFFFFF7FAFEA8
:10083000FFF752FFFFF77EFFFFF76EFF206B0128E7
:10084000EFD010BD00F09CBB00F0B4BB70B5064605
:100850006B4C4FF480752846DFF814C2616900DFE5
:100860003220DFF810C200DF2846DFF804C26169D9
:1008700000DF3220DFF8FCC100DF31460120DFF865
:10088000F0C100DF3220DFF8ECC100DF70BD5C4C4E
:100890004FF6FF75012229461046DFF8DCC100DF64
:1008A0000120FFF7CFFFA068FFF7D0FF0120FFF77F
:1008B000CBFFEFE7524C4FF6FF7501222946104659
:1008C000DFF8B4C100DF0220FFF7BCFFE068FFF7EC
:1008D000BDFF0220FFF7B8FFEFE7494C4FF6FF7569
:1008E000012229461046DFF890C100DF0420FFF7FF
:1008F000A9FF2069FFF7AAFF0420FFF7A5FFEFE794
:100900003F4C4FF6FF75012229461046DFF868C1BB
:1009100000DF0820FFF796FF6068FFF797FF0820C9
:10092000FFF792FFEFE74FF6FF744FF48075012257
:1009300021462846DFF840C100DF8020FFF782FF14
:100940000820DFF830C100DF8020FFF77DFFEEE7F1
:10095000002000F04BFA6F223C21002000F08BFABF
:100960006F222821002000F086FA6F221421002037
:1009700000F081FAECE74148DFF804C100DF002312
:100980001A461946AFF2F900DFF8F8C000DF1C4C38
:10099000606000231A461946AFF2E700DFF8E4C0B2
:1009A00000DFA06000231A461946AFF2D100DFF83D
:1009B000D4C000DFE06000231A461946AFF2BF0042
:1009C000DFF8C0C000DF206100231A461946AFF2ED
:1009D000A900DFF8B0C000DF606100231A461946A5
:1009E000AFF29300DFF89CC000DFA0610120DFF8C8
:1009F00080C0616800DF0020DFF88CC000DFFEE708
:100A00000C000010202020202047414D45204F564B
:100A1000455220200000000020202066696768748D
:100A20006572204372617368656400002020507510
:100A3000736820524553455420427574746F6E207C
:100A400000000000202020202047414D45204F5627
:100A500045522020202020002020596F75204D690C
:100A600073736564204D6574656F200000C00920B4
:100A70007513000021130000D5130000E02A0010B8
:100A8000C9150000C1190000511A000010B5FFF788
:100A900064FD00F06BFA00F024F84FF6FF7000F0F0
:100AA000ABF9FFF7B8FE002010BD00008004401E27
:100AB000411CFCD1704770B50546F74C606920F0C9
:100AC00040006061601540EA152000F019FAE8B2B4
:100AD00040F4807000F014FA606940F040006061FA
:100AE00070BD10B5ED48416A21F040714162EA4C99
:100AF0001834A16E41F08051A166416A21F0406135
:100B00004162A16E41F00051A166E16F41F00051D8
:100B1000E167E3490A6842F480620A60D1F8E420A0
:100B200042F40012C1F8E42054F8181C41F04001CE
:100B300044F8181C40212160016821F47C210160E7
:100B4000016841F428210160D6480821016006218E
:100B50000161022141600520FFF7A8FFCF2000F0CE
:100B6000D9F9002000F0E3F9832000F0E0F930200B
:100B700000F0DDF9ED2000F0CDF9642000F0D7F9A8
:100B8000032000F0D4F9122000F0D1F9812000F008
:100B9000CEF9E82000F0BEF9852000F0C8F9012068
:100BA00000F0C5F9792000F0C2F9CB2000F0B2F9CD
:100BB000392000F0BCF92C2000F0B9F9002000F039
:100BC000B6F9342000F0B3F9022000F0B0F9F720B4
:100BD00000F0A0F9202000F0AAF9EA2000F09AF92C
:100BE000002000F0A4F9002000F0A1F9C02000F0DE
:100BF00091F91D2000F09BF9C12000F08BF9112024
:100C000000F095F9C52000F085F9332000F08FF948
:100C1000342000F08CF9C72000F07CF9BE2000F0F1
:100C200086F9F62000F076F9012000F080F9102016
:100C300000F07DF9002000F07AF93A2000F06AF91E
:100C4000552000F074F9362000F064F9B02000F06F
:100C50006EF9B12000F05EF9002000F068F91B2069
:100C600000F065F9B62000F055F90A2000F05FF9B0
:100C7000A22000F05CF9F22000F04CF9002000F016
:100C800056F9262000F046F9012000F050F9E02046
:100C900000F040F90F2000F04AF9232000F047F956
:100CA0001F2000F044F9092000F041F90F2000F066
:100CB0003EF9082000F03BF94B2000F038F9F22013
:100CC00000F035F9382000F032F9092000F02FF952
:100CD000132000F02CF9032000F029F9122000F075
:100CE00026F9072000F023F9042000F020F9E12084
:100CF00000F010F9002000F01AF91D2000F017F99B
:100D0000202000F014F9022000F011F9112000F069
:100D10000EF9072000F00BF9342000F008F98120CB
:100D200000F005F9462000F002F9062000F0FFF877
:100D30000E2000F0FCF80C2000F0F9F8322000F052
:100D4000F6F8382000F0F3F80F2000F0F0F811204A
:100D500000F0E0F80C20FFF7A9FE292000F0DAF8F7
:100D6000E06F40F08050E06710BD70B504460D465E
:100D70002A2000F0CFF8C4F3072000F0D8F8E0B242
:100D800000F0D5F82C44641EC4F3072000F0CFF81F
:100D9000E0B2BDE8704000F0CAB870B504460D4638
:100DA0002B2000F0B7F8C4F3072000F0C0F8E0B241
:100DB00000F0BDF82C44641EC4F3072000F0B7F81F
:100DC000E0B2BDE8704000F0B2B810B50C460121A9
:100DD000FFF7CBFF01212046FFF7DFFF2C2000F0BB
:100DE00099F831480088BDE8104064E62E49088033
:100DF00070472D494880704770B506464FF4A07182
:100E00000020FFF7B2FFF0210020FFF7C6FF2C20E3
:100E100000F080F800244FF496353046FFF74BFE83
:100E2000641CAC42F9D370BD2DE9F0410C469046EC
:100E300000251021FFF799FF18212046FFF7ADFF8D
:100E40002C2000F067F8184F0126002438F8150010
:100E500006FA04F1084203D17888FFF72CFE02E07D
:100E60003888FFF728FE641C102CEFDB6D1C182D52
:100E7000EBD3BDE8F081203AD2B20B4B02EB420239
:100E80001B1D03EB0212CFE72DE9F04107460D468B
:100E90000024002611E0000000C0092000C002402C
:100EA000C4C00F40000003405400001039463046D3
:100EB000FFF7E1FF10366D1C641C2A78002AD8D099
:100EC000142CF3D3D5E721A1DEE72DE9F0410F463D
:100ED000069C11461D4601FB05F6FFF746FF294615
:100EE0003846FFF75AFF2C2000F014F8002504E0E4
:100EF00034F8020BFFF7DFFD6D1CB542F8D3B8E7FD
:100F0000C0F3080117488160C168C906FCD4806835
:100F1000C0B2704710B5144C616921F040016161A5
:100F2000FFF7EEFF606940F04000606110BD10B552
:100F30000D4C616921F04001616140F48070FFF760
:100F4000DFFF606940F04000606110BD202020207C
:100F50002020202020202020202020202020202091
:100F6000000000000000034000C009203248016A70
:100F700041F030410162016C41F07C010164704735
:100F800070B500212C4A2D4B012505FA01F40442CD
:100F90000CD0032905DA546B53F8216034435463B1
:100FA00004E0546D53F8216034435465491C08290A
:100FB000EBDB70BD70B500211F4A204B012505FAFF
:100FC00001F404420CD0032905DA546B53F8216074
:100FD000B443546304E0546D53F82160B443546542
:100FE000491C0829EBDB70BD70B50021124A134B78
:100FF000012404FA01F505420DD0032905DA556BE9
:1010000053F821603543556312E0556D53F8216064
:10101000354355650CE0032905DA556B53F821601B
:10102000B543556304E0556D53F82160B5435565EC
:10103000491C0829DDDB70BD00C00920E01B000051
:1010400053EA020C00F069802DE9F04B4FF00006E6
:10105000002B1FBFB3FA83F503FA05F424FA05F653
:101060005E4012BF1643B2FA82F502FA05F4C5F1EA
:1010700020051EBF22FA05FC44EA0C04203556EA7E
:10108000044C4FEA144418BF641C4FF000084FF0A2
:101090000009904271EB030C39D3002919BFB1FA52
:1010A00081F701FA07F6B0FA80F700FA07F6C7F100
:1010B00020071EBF20FA07FC46EA0C062037B6FBC5
:1010C000F4FCA7EB0507103F07F01F0BCBF1200640
:1010D0000CFA0BFB2CFA06F644BFB3460026202F71
:1010E000A4BF5E464FF0000B5BEA060C08BF4FF052
:1010F000010B19EB0B09ABFB027C48EB0608C01B8C
:1011000006FB02CC0BFB03CC71EB0C01C1E70B46D9
:10111000024641464846BDE8F08B13B54FF000004B
:101120004FF00001AFF30080BDE81C4070477546EA
:10113000FFF7BEF8AE4605006946534620F00700AB
:10114000854618B020B5FFF75DF8BDE820404FF0A8
:1011500000064FF000074FF000084FF0000B21F0A1
:101160000701AC46ACE8C009ACE8C009ACE8C0096E
:10117000ACE8C0098D46704710B50446AFF3008057
:101180002046BDE81040FFF70EB8000001491820C6
:10119000ABBEFEE726000200000000004FF06042F8
:1011A000D36F002BFCD0436BD367D36F002BFCD0E5
:1011B000C07840EA0120A2F87C0070474FF06041FF
:1011C000CA6F002AFCD081F87C007047704750E855
:1011D000001F31B10B6840E80032002AF7D1084601
:1011E0007047BFF32F8FFAE770B50D46002812D075
:1011F0004FF6FF71084C884204D22268014610461F
:1012000000F0CEFA20684570044800F011F9BDE8FE
:10121000704000F081BB70BD58150010F02A00101E
:101220000F4810B50D4942680E480B68006893429C
:1012300004D00A60CB88421E1A448A808A8880B211
:1012400082420AD100200860054800F0F1F801460A
:10125000BDE81040024800F0C7BA10BD6415001088
:10126000F02A00106015001070B51A4DE8680028CB
:101270002ED0A88A401EA882002623E0A06838B19C
:1012800061684160606810B1A16881606660A660B5
:1012900010482146183800F0A7FAA08AA882607882
:1012A000042804D10C49E08A09880844A08201205E
:1012B000607084F82500E068E860E06808B10561C6
:1012C000E6602661A88A002802D1EC68002CD5D1FE
:1012D00070BD0000082B00106015001070B50400F0
:1012E0000FD00D4DA17801262868827891420CD943
:1012F00000F096FA286846702046BDE8704000F07D
:101300000BBB064800F094F8F7E766702146BDE88D
:101310007040024800F068BA58150010F02A00101A
:101320000321FFF761BF000010B50446008B08439E
:1013300020836278618B062A16D0052A17D10842CD
:1013400015D001EA0002628388432083204600F022
:101350008BFA01206070022084F825002146BDE848
:101360001040034800F040BA31EA0002ECD010BD52
:10137000F02A0010024670B5154800EB810050F8C5
:10138000044C002C22D0208B104320836178658B85
:10139000062918D0052919D1284217D005EA0001DD
:1013A0006183A8432083204600F05EFA208BA84387
:1013B000208301206070022084F825002046BDE8CB
:1013C0007040FFF78BBF35EA0001EAD070BD000026
:1013D000A427001070B503460C480D460468208B06
:1013E00042B133EA000101D0062109E0984320838D
:1013F000022070BD10EA030101D06183F6E70521E8
:1014000063832846FFF7F0FE012070BD58150010D9
:10141000814202D342688A4201D80120704750E8D5
:10142000002F0A6040E80012002AF8D1002070471F
:101430000146406842684A600B780022022B05D0C2
:10144000012B03D0032B01D04260704743680BB1DE
:10145000996042608260704770B50446002015466E
:10146000207001226270A17084F824106060A06076
:10147000E06020612062A082E0822083608384F8A3
:10148000250084F82600208D18B90548FFF79FFE37
:10149000206329462046BDE8704000F003B80000F4
:1014A0001017001010B5028D920803D10F4A128850
:1014B000C2F38D02036B03EB8202530700D5121FA8
:1014C0004FF0807342E9021300231C46B2F1400240
:1014D00042F823405B1C0E2BFAD3C3691362C2622D
:1014E0004163006B0249016010BD0000D01B000089
:1014F000A52E5AE22DE9F041044640680F464FF010
:10150000000804F10C0620B1617802291DD0A089E1
:10151000E8B3A089E18988424ED2208904EB80009B
:10152000C0F81070D6E85F0F401C81B2C6E8501FAB
:101530000028F7D12089401C80B22081E1898842AF
:1015400001D1A4F80880BDE8F081406800B1012015
:1015500060702046FFF76CFF80F8258022890546E1
:1015600004EB8202C0694146C2F81000D6E85F0F62
:10157000401C82B2C6E8502F0028F7D12089401CB9
:1015800080B22081E28990420BD1218109E0FFE7FE
:101590002046FFF74DFF0546C0690421076085F826
:1015A000251001206870284600F05EF92946BDE844
:1015B000F041044800F018B9BDE8F0410320FEF7FF
:1015C00033BE0000F02A0010032101700021418089
:1015D00041608160C16070472DE9F0470446408852
:1015E00020B1344DA1682A68914202D0FF20BDE8A5
:1015F000F087401E0004000C608059D12968086AF9
:10160000A04209D1E068086208E0C268A24202D1A3
:10161000E268C26002E010460028F6D191F824008A
:101620000A6A06E053681BB19B78834200D91846CA
:10163000D268002AF6D18870DFF87C806168914614
:10164000012741B32046FFF7F3FE0646052086F842
:101650002500304600F008F96780A660306AE06037
:1016600034622968D8F804008A788078824201D3ED
:1016700030460AE0104800F0B7F831460E4800F056
:10168000B3F828684770777010E0FFF727FE2968E5
:1016900081F825900CE0D8F804108A7829688242F5
:1016A00006D9054800F0A0F8286847700020ECE74C
:1016B00000209CE758150010F02A001070B5184D56
:1016C0000E4604464188286839B1A168814209D193
:1016D0006088401C6080002070BDA060016AE160ED
:1016E0000462F5E776B18A788078824203D2887006
:1016F000A06800F09FF8606830B12046296800F0CB
:1017000073F808E0012070BD286860602968002037
:1017100048602868846009213046FFF765FDF1E7DD
:101720005815001070B51B480121026851700068FF
:1017300000F076F8184D6C7818E000BF05EBC40196
:1017400048680278EAB1012A20D000F0B9F8E878B8
:10175000641C844200D100240F48801CD0E84F1F35
:10176000491EC9B2C0E8421F002AF7D1A878002854
:10177000E4D16C700948FFF75BFEBDE8704000F0F3
:10178000CBB8098989B2FFF7CFFDE0E78968FFF799
:10179000B1FEDCE75815001020270010F02A0010D9
:1017A000104A10B5D368ABB113469B8A03E08CB1E5
:1017B0002246A48A2344D4688B42F8D3C460D06004
:1017C0000261C46804B12061591A8182908A401A6A
:1017D000908210BD0024C460D060C91A0261918259
:1017E000848210BD082B001030B502780023022A35
:1017F00003D0012A01D0032A00D101238C7800E014
:101800001046426812B19578A542F9D24A6041600B
:101810001BB102B19160886030BD0020FBE7000081
:1018200003494A68426000228260486070470000B5
:10183000F02A001010B5836804462BB9607801289F
:101840000ED1084B03E09B6818780028FBD0204697
:1018500000F01EF82146BDE810401846FFF7C4BF4F
:1018600010BD0000F02A001010B5016900290ED04B
:10187000C268CA60C36800223BB18B8A848A234451
:101880008B82C3681961C26000E08A82026110BD68
:10189000816839B142684A604168002901D0806896
:1018A00088607047054906E04A68824202D1406874
:1018B0004860704711460029F6D17047F02A0010A1
:1018C00010B5416879B1FFF7B3FD0446FFF7CCFFCF
:1018D00001206070032084F825002146BDE81040F7
:1018E0000348FFF781BF4188491C418010BD0000BB
:1018F000F02A001006480068D0E90B10814203D39B
:1019000000680449884202D00120FEF78DBC704770
:1019100058150010A52E5AE207490222486042706D
:10192000064A1278002A05D006C98A4202D0C07839
:10193000FFF744BC70470000581500106C150010EC
:101940000C4810B50268012151700068FFF768FF6C
:10195000FFF766FC08480168491C0160FFF784FC3A
:1019600000F00EF80548FFF763FDBDE81040FFF7F3
:10197000D3BF00005815001060150010F02A0010A9
:1019800070B50D4C2068002815D0A0880B4E401E65
:10199000A0800AE0E888FEF746FCA888A0802868B6
:1019A000206029463068FFF733FDA088002802D167
:1019B0002568002DEED170BD7015001004000010D8
:1019C0002DE9F0411E46174680460C4611F0FF0FE8
:1019D00000D14C1C1948FFF7FAFB05002BD0200A58
:1019E0002F632885E1B242462846EE61FFF734FDB9
:1019F00001241348134905E000EB840252F8042C3B
:101A000022B1641C0A889442F6D9002400EB8400B9
:101A1000E6B240F8045C0C48EE70007818B1012181
:101A20002846FFF7BBFB2846FFF758FC074800682D
:101A300080F825602046BDE8F08100007815001090
:101A4000A4270010CC1B00006C15001058150010C6
:101A50002DE9F05F544DDFF848B1DFF848A129685F
:101A60004FF000084FF00509012610B1CA788242F4
:101A70003FD1474681F80180FEF745FC2968C862DE
:101A8000FFF738FF2868B046046A18E06068A8B11C
:101A90002046FFF7CDFC064680F82590FFF7E4FED0
:101AA00086F8018031464148FFF79EFEA4F8028087
:101AB000A660316AE1603462E46800E0E468002C0A
:101AC000E4D12868C2780AEB820141F8047C016BFA
:101AD0003748FFF79DFC286807639BF8001011B199
:101AE0000021FFF75BFB33482968FFF791FC2F606B
:101AF00051E03149098888420ED80AEB800757F82F
:101B0000045C4DB12846FFF7C3FE2846FFF7ACFE44
:101B1000CA46B1462C6A1BE0FF20BDE8F09F606812
:101B2000A8B12046FFF784FC064680F825A0FFF701
:101B30009BFE86F8019031461C48FFF755FEA4F83D
:101B40000290A660316AE1603462E46800E0E46813
:101B5000002CE4D147F8048C44461548296BFFF764
:101B600057FC2C639BF8000018B100212846FFF7B2
:101B700015FB29460F48FFF74BFC0C48406882785C
:101B8000094801688B789A4208D981F80190016868
:101B90000648FFF729FE0020FFF7A0FB0020BCE766
:101BA0006C150010A427001058150010F02A001022
:101BB0001017001078150010CC1B000002480068B8
:101BC000002800D0C07870475815001007000000AA
:101BD00000020001000000001027000000000000CB
:101BE0000000001000000020000000800400000041
:101BF000080000001000000020000000400000006D
:101C00004B000400241C00000000001078150000A8
:101C100008010000B823000078150010F01800003B
:101C20006C01000000064F00A24A0400010330FFCF
:101C3000FF340316800102611EE16692CC02012A84
:101C40006A23600C02200F30063006FE1FFE1F3094
:101C500006380718030A2007180318038C010231FD
:101C600072201700E003F80F9C0E8C1C8C188C005F
:101C70009800F801E007800E800E100B189C18B831
:101C80000CF00FE0038026A15A10090E181B0C114E
:101C90000C11060210110311039B018E01C038C004
:101CA0006C60446044300264071844186C0C38249B
:101CB0001005E001F0037A10140618063003F00155
:101CC000F000F8009C310E33061E061C02E0063FB1
:101CD000FC73F021B8920C020121E7100B02000303
:101CE0008001C000C0006002D230022114211C1506
:101CF0005E12032A15163220123570120302D20624
:101D000002111425A2214ED6208821481008D80699
:101D1000F807E00130D2052AEAC405FC3FFC3FE8A1
:101D2000092C301200020A1B808A080534E007E003
:101D300007C4253AF57F750C155C3510456245647E
:101D4000D17AE00A03F007380E180C0C1802D409F7
:101D5000180C380EF007E003B0214C0C071901F005
:101D6000019801880803A16043F80F5E2200022158
:101D70009C35F025ECD0071800FC1FFC1F901007C5
:101D800001F807180E0C0121C81805C003C007513F
:101D9000113C41920210F8904C0B0C000E000F0009
:101DA0000F800DC03003116B270C0CB20914851382
:101DB000F80F9031893009EC03FC071C0E001C98C9
:101DC000115E0005101C0C180E602009C007F00FF2
:101DD000381C1818325409CC03EC0F3C0E1C1C2084
:101DE00006121C2031D24582357C16C07A3AE0C8F2
:101DF0005A70DE051480215384073806F007F00777
:101E00008CE005380CF80F604130521C2430091C5E
:101E10001C381EF81BE019D1130C1CC00B1BF00161
:101E20008A012114011F30091ACE1C0510001C80E4
:101E3000720416F8DC1AF85C17800F600E18108216
:101E400005C3F81F080D1E1405180708003800F018
:101E50000114121F61161F9C1301381409177079A1
:101E60006E6D2603FD2E033D7C03400C18180420E4
:101E7000C229224A11440902EC0C221113E20C027D
:101E80004004201818980315D4200403C006023912
:101E90006E2218022C07F83FF83F1C70AF0521197D
:101EA000D9106C0503FC0F0C5E0310040CFC070E2C
:101EB0001A18A541021E180003FA0770BC0A1F3841
:101EC000381C300C700660DD04E008600C701C30BB
:101ED000F01F903C08FE03FE0F060E06A105B1029E
:101EE0002DB305E8050EFE0FFEA01DCC048DA20546
:101EF00029AEADB0053D3803C5A211DC4DBB032DA5
:101F000027038005F81FF81F0E4DD303DDCA043CDC
:101F10000C0FF83F3C780E6006E007C0810411A169
:101F20001DC5031533DC090EC03CF0F83FE00FBFC0
:101F300003A23002319EB1120F260C3080070D151E
:101F4000A005021406022531DC063807F003E0B0D4
:101F500004353A10140C060606038601C600660016
:101F60007600DE008E01060312360C64DD410502A8
:101F70001B18022530CD210320050EE01EF0024380
:101F800036D8022366CC0252C601E40586C386C356
:101F90002010041C303C02126C0212CC0210058C82
:101FA000310C3302123602123C02E638201C05E0E6
:101FB00007F81F9904193EA303C002F80806600E33
:101FC000701C38F8401BFC0F02CA38920E190CC462
:101FD00007916082E05E140907E006630E3F1C3C37
:101FE000E0CEF79106198258041F06389C1E38C0AF
:101FF0000876074C49B20E106030065DDE041D9B6A
:10200000051BF80330331E00401C050E301C1C104D
:1020100005ED000308042A7FFE7F10E95EA97E0714
:1020200010181820430360BC6D14072D16072D945B
:1020300009140570076003631DE005E13023C361E7
:102040000283663302236C1B02CC092C1A3C1E3817
:102050000E380E31051C090FE00C70183030183F97
:10206000043C040EC0075E04140503E00670F71D6F
:102070008107D006300E6007E0602D79044C0830EF
:102080001C383818300C65030D1C80075C05FC7F7C
:10209000FC7F6D07DD7C072D2708253EED10082FFE
:1020A000E003AE06011E0221282DA60A6DA6094DE9
:1020B000A8091D64096D0E0B7E03A009F1600221C1
:1020C000000261601D82071D4407256C3F6003D735
:1020D0000429190D3BF40BCDF60B0D2DAE0A9D4ACC
:1020E000081805F003F807AA2C070C000FF00FF8EA
:1020F000B1081F0C1C5C080F16F01820041ED8A88D
:102100000B1E38370881012DE0070F17D803DA09B5
:102110001D9A096F300E39092DA3081E309009EE63
:10212000C00009711F2805C01BF01F368160000721
:1021300019301CF01FC01B601E0F83066E18D405DB
:102140001952EC051CF00FC0F00644040FC00FDA62
:102150002D9C0855E4B1020D17D40A1E0DFA093D55
:10216000CA0961011D600924050FE00D002A6E06F1
:10217000AA0895204F07F86A09D1010D16F00A0246
:1021800015C002012E3041DEEC04F80078BE0C1CB4
:10219000050C0C060C6A0D100DCC006C00FC009CAC
:1021A000018C030C03120E100C560C011C020D16B0
:1021B0009009E0097C3CFF7EC7E383C1020D16EA6B
:1021C0000B062398200510E099101D0E0E0A17C06B
:1021D000700916A00D16EA070917700D151B081EC9
:1021E000B06E07FE70E20D0E1830140D1E037A0E4D
:1021F0001D1A0B1DF2093D060C0D15900C1D020F4A
:102200000919A00F170780EA0D09106A1238C01DBE
:102210004C0B0D15DB0A4DFE053E18920F1DB7063F
:102220000E140300068DF80F3008C141C141C3618F
:102230006301323601321C010D16F00F3E1CF70906
:1022400052605A1D5E061D75061E38E10B0117C04F
:102250001D36061D38062E1828102FE00C940A2D66
:102260003E064DF00D1DA20D1D700C0D159A0C0DA6
:102270001B800D8D300B8D320E2DE205BA40D63D00
:10228000900F0D259009CD22119E6024069DC60F4A
:10229000B3030048FEC0A80E5D74050C065010F88C
:1022A0001F080F0A122D6E05600B300C0810042059
:1022B0000420024002210E0C05120810300C3403D9
:1022C0002D3E052FF81F1A102D82084102210E0FF6
:1022D00018F81F64031EE04C0EA9700F1CF00FF6D7
:1022E0000F21302D9E056102011E30ADBC103AC099
:1022F0004021660D10840A011430A16E0D10A80D46
:102300001D24063D42041DE30C0E20030411A1B25E
:102310000122307D6C121D581010048C01860212AF
:102320008C0A00051EF001E001301006F801FC01E6
:10233000FE0212FC0A011E30100B8007800F80196C
:10234000803180610212310A00041F0F80073010B3
:10235000061F803F807F02123F0A0111301805C01E
:1023600001200233B00501300608012116E1024DBB
:10237000CE082D62091D4211A00407D80D027DF67A
:1023800003910201126023041059324016431004D5
:102390001211026C042004402E09C1604C07CC19B4
:1023A000C631C26142091F700680084D3A101D698E
:0823B000040D224603000000A9
:04000005000000CD2A
:00000001FF
